:100000000C943E000C945B000C945B000C945B0021
:100010000C945B000C945B000C945B000C945B00F4
:100020000C945B000C945B000C945B000C945B00E4
:100030000C945B000C947C150C945B000C945B009E
:100040000C94680F0C945B000C945B000C945B00A8
:100050000C9484160C94DD160C945B000C945B00DD
:100060000C945B000C945B000C945B000C945B00A4
:100070000C9438170C9491170C945B0011241FBE3C
:10008000CFEFD8E0DEBFCDBF11E0A0E0B1E0E2EC01
:10009000F0E502C005900D92A839B107D9F728E024
:1000A000A8E9B1E001C01D92A534B207E1F70E94B2
:1000B000E3090C945F280C940000CF93DF93CDB735
:1000C000DEB72C970FB6F894DEBF0FBECDBF988772
:1000D0008F8369875B874A872C878A859B859A836C
:1000E00089838C85882F90E02A853B85820F931F1A
:1000F0009C838B838985882F90E02F813885820FA0
:10010000931F9E838D8369C08F819885FC018081B8
:10011000882F90E0009721F08F3F910541F14AC070
:100120008B819C819C01215031098A859B85821796
:100130009307D8F48A859B859C012F5F3F4F3B87AF
:100140002A872F813885F9012081FC0120838A8547
:100150009B859C012F5F3F4F3B872A872F813885E6
:10016000F9012081FC01208333C080E04DC08B81E8
:100170009C819C01215031098A859B8582179307B8
:10018000B8F48A859B859C012F5F3F4F3B872A8768
:10019000FC0110828A859B859C012F5F3F4F3B8726
:1001A0002A872F813885F9012081FC01208310C026
:1001B00080E02AC08A859B859C012F5F3F4F3B874B
:1001C0002A872F813885F9012081FC0120830000D6
:1001D0008F819885019698878F832F8138858D81AF
:1001E0009E812817390740F42A853B858B819C81A5
:1001F0002817390708F488CF2A853B8589819A8199
:10020000A901481B590BCA012C960FB6F894DEBF02
:100210000FBECDBFDF91CF910895CF93DF93CDB7C0
:10022000DEB72C970FB6F894DEBF0FBECDBF988710
:100230008F8369875B874A872C878F8198859A830C
:1002400089838985882F90E02F813885820F931FBD
:100250009C838B838C85882F90E02A853B85820F39
:10026000931F9E838D8339C08A859B85FC01808185
:10027000882309F58A859B8501969B878A878A85CD
:100280009B85FC018081882331F08A859B85FC0158
:1002900080818F3F71F48F8198859C012F5F3F4F44
:1002A00038872F832A853B85F9012081FC01208333
:1002B0000FC080E029C08F8198859C012F5F3F4F40
:1002C00038872F832A853B85F9012081FC01208313
:1002D0008A859B8501969B878A872F8138858B81AC
:1002E0009C812817390740F42A853B858D819E81A2
:1002F0002817390708F4B8CF2F81388589819A816A
:10030000A901481B590BCA012C960FB6F894DEBF01
:100310000FBECDBFDF91CF910895CF93DF9300D073
:10032000CDB7DEB789836A838A81882F90E08130D8
:10033000910509F473C0029709F0E3C0898188230D
:1003400071F48981882F90E0880F991F88569E4FFD
:10035000FC0180819181FC0181818F3798F0898136
:10036000813009F0CBC08981882F90E0880F991FD8
:1003700088569E4FFC0180819181FC0181818A38E1
:1003800008F0BCC08981882F90E0880F991F88569B
:100390009E4FFC01808191812981222F30E0220F24
:1003A000331F28563E4FF90120813181F901218107
:1003B000225FFC0121838981882F90E0880F991F9B
:1003C00088569E4FFC01808191812981222F30E047
:1003D000220F331F28563E4FF90120813181F90148
:1003E0002281225FFC0122838981882F90E0880F7F
:1003F000991F88569E4FFC01808191812981222F6F
:1004000030E0220F331F28563E4FF9012081318101
:10041000F9012381225FFC01238370C08981882335
:1004200071F48981882F90E0880F991F88569E4F1C
:10043000FC0180819181FC018381823098F4898163
:10044000813009F05DC08981882F90E0880F991F65
:1004500088569E4FFC0180819181FC0183818D3003
:1004600008F44EC08981882F90E0880F991F885624
:100470009E4FFC01808191812981222F30E0220F43
:10048000331F28563E4FF90120813181F901218126
:100490002E50FC0121838981882F90E0880F991FBD
:1004A00088569E4FFC01808191812981222F30E066
:1004B000220F331F28563E4FF90120813181F90167
:1004C00022812E50FC0122838981882F90E0880FA1
:1004D000991F88569E4FFC01808191812981222F8E
:1004E00030E0220F331F28563E4FF9012081318121
:1004F000F90123812E50FC01238302C0000001C0BA
:10050000000000000F900F90DF91CF910895CF93DE
:10051000DF93CDB7DEB790919C0181E089278823D6
:10052000A9F01092A70110929E0110929D011092C5
:10053000A00110929F0181E080939C0186E291E0EE
:100540000E94C90288E991E00E94B5050000DF9190
:10055000CF910895CF93DF93CDB7DEB710929C0172
:100560000000DF91CF910895CF93DF9300D0CDB7F6
:10057000DEB789836A838A81880F982F990F990F34
:10058000990F981B8981890F0F900F90DF91CF9160
:100590000895CF93DF9300D0CDB7DEB79A838983D8
:1005A00089819A810E94562821E0280F89819A81A9
:1005B000622F0E94490E00000F900F90DF91CF91A3
:1005C00008950F931F93CF93DF93CDB7DEB72A978C
:1005D0000FB6F894DEBF0FBECDBF9A87898763E060
:1005E00070E080E090E00E943B2389859A859D839E
:1005F0008C83198211C08981082F10E00E94980510
:100600009C01C801880F991F88569E4FFC013183B9
:10061000208389818F5F89838981823060F30E9482
:10062000372298878F838C819D810E941C0688E9E0
:1006300091E00E94B505209100018C819D81422F9F
:1006400068E971E00E94710680E090E00E94EF2569
:100650008E83CE01079662E370E00E94C1208091F4
:10066000A701882349F08091A5019091A6010196E8
:100670009093A6018093A5018091A5019091A60178
:100680002BE730E0B9010E94FC27892B79F4909187
:100690009C0181E08927882349F08091A701882364
:1006A00029F081E080939C011092A7018091A5011F
:1006B0009091A6018436914021F41092A6011092E7
:1006C000A50180919C01882309F4BECF8C819D8176
:1006D0000E941C061B821A82A4C1909100018FE423
:1006E000989F812D1124869586952DE0829F802DDF
:1006F0001124292F281B822F282F30E090910001F0
:100700008FE4989F812D112486958695882F90E0FF
:1007100001972817390749F580919D0190919E0115
:10072000019690939E0180939D0185E18093000145
:1007300082E090E0909302018093010189E391E0CF
:100740000E94C90240919F015091A00120919D01FA
:1007500030919E018C819D81B9010E9430071092D9
:100760009C0181E08093A70166C080910001882FE1
:1007700090E00C972EE030E0B9010E94FC27892B15
:10078000B9F480919A0190919B01FC019181809133
:100790000001981769F482E090E090930201809341
:1007A000010181E090E09093A4018093A30143C0F4
:1007B00080910001882F90E00C972EE030E0B90185
:1007C0000E94FC27892BB9F480919A0190919B019A
:1007D000FC01928180910001981769F482E090E019
:1007E000909302018093010182E090E09093A40134
:1007F0008093A30120C080910001882F90E00C9786
:100800002EE030E0B9010E94FC27892BA1F48091F1
:100810009A0190919B01FC019381809100019817AE
:1008200051F482E090E090930201809301011092D4
:10083000A4011092A30120910001922F969583E9C3
:10084000989F812D112486958695982F892F880F42
:10085000982F892F880F880F880F891BF22FF81B7C
:100860008F2F882349F580919F019091A0010196D7
:100870009093A00180939F0181E090E0909302010A
:100880008093010185E1809300018AE491E00E9458
:10089000C90240919F015091A00120919D0130918A
:1008A0009E018C819D81B9010E94300710929C01AC
:1008B00081E08093A70166C080910001882F90E0BD
:1008C00001972EE030E0B9010E94FC27892BB9F492
:1008D0008091980190919901FC0191818091000192
:1008E000981769F481E090E09093020180930101F0
:1008F00081E090E09093A4018093A30143C0809194
:100900000001882F90E001972EE030E0B9010E94AD
:10091000FC27892BB9F48091980190919901FC01F1
:10092000928180910001981769F481E090E09093A2
:1009300002018093010182E090E09093A4018093F2
:10094000A30120C080910001882F90E001972EE044
:1009500030E0B9010E94FC27892BA1F48091980115
:1009600090919901FC01938180910001981751F4B5
:1009700081E090E090930201809301011092A40124
:100980001092A3018091A1019091A2012BE130E08E
:10099000B9010E94FC27892B49F4809101019091B3
:1009A0000201BC0180E091E00E9420058091A1013C
:1009B0009091A20101969093A2018093A101809150
:1009C000A1019091A2018E30914021F41092A201D8
:1009D0001092A10180919D0190919E01029730F4A7
:1009E00080919F019091A0010297B0F080919D01AC
:1009F00090919E01029720F08BE591E00E94C90240
:100A000080919F019091A001029720F088E691E0EB
:100A10000E94C9020E94AA028A819B8101969B833F
:100A20008A838A819B8102970CF457CE2091000122
:100A30008C819D81422F68E971E00E94710604CE8D
:100A4000CF93DF9300D000D01F92CDB7DEB79B834A
:100A50008A837D836C838A819B81FC018081898369
:100A600089818E3720F01092A4011092A301898110
:100A70008D3030F481E090E09093A4018093A30145
:100A80008C819D810197F1F48091A3019091A40143
:100A9000019721F48981815F898331C08091A3010D
:100AA0009091A401892B21F489818D50898327C0DD
:100AB0008091A3019091A401029709F589818F5F2C
:100AC00089831DC08091A3019091A401019721F415
:100AD0008981835F898313C08091A3019091A401D0
:100AE000892B21F489818F50898309C08091A301CA
:100AF0009091A401029719F4898181508983898199
:100B000091E08C3808F490E02CE8929F902D11240D
:100B1000891B89838A819B812981FC0120830000B4
:100B20000F900F900F900F900F90DF91CF9108953D
:100B3000CF93DF9300D0CDB7DEB784E090E00E9482
:100B4000EC179A83898389819A81892B19F4898189
:100B50009A8106C089819A81FC01108289819A81DB
:100B60000F900F90DF91CF9108950F931F93CF9324
:100B7000DF9300D0CDB7DEB79A83898389819A81CC
:100B8000FC018081918123E0FC01208389819A818D
:100B9000FC010081118162E081E00E94B402F80151
:100BA000818389819A81FC010081118161E081E06A
:100BB0000E94B402F801828389819A81FC0100813C
:100BC000118160E081E00E94B402F8018383898191
:100BD0009A810296FC018081918123E0FC012083AF
:100BE00089819A810296FC010081118169E08CE083
:100BF0000E94B402F801818389819A810296FC01E6
:100C00000081118168E08CE00E94B402F8018283C7
:100C100089819A810296FC010081118167E08CE054
:100C20000E94B402F801838300000F900F90DF91BF
:100C3000CF911F910F910895CF93DF9300D01F9212
:100C4000CDB7DEB79B838A8319820FC08981882F35
:100C500090E0880F991F2A813B81820F931FFC012E
:100C60001182108289818F5F898389818E3070F330
:100C700000000F900F900F90DF91CF910895CF93C8
:100C8000DF931F92CDB7DEB789838981982F969520
:100C900083E9989F812D1124869586950F90DF9189
:100CA000CF910895CF93DF931F92CDB7DEB789839D
:100CB0002981922F969583E9989F812D11248695FD
:100CC0008695982F892F880F982F892F880F880F46
:100CD000880F891B922F981B892F0F90DF91CF913E
:100CE00008950F931F93CF93DF93CDB7DEB7279768
:100CF0000FB6F894DEBF0FBECDBF9C838B837E837F
:100D00006D834F838F810E943F06882F90E029E0FA
:100D100030E0281B390B81E090E08C0102C0000F0D
:100D2000111F2A95E2F78F810E945206482F842FC7
:100D300090E0880F991F2B813C81820F931F242FF5
:100D400030E0220F331F4B815C81240F351FF901E6
:100D500020813181A801242B352BFC013183208394
:100D600019826EC01A8257C08981882F90E0880F3F
:100D7000991F2D813E81820F931FFC0120813181BB
:100D80008A81882F90E0820F931F0196FC01808159
:100D90000E943F06882F90E029E030E0281B390BA5
:100DA00081E090E08C0102C0000F111F2A95E2F74C
:100DB0008981882F90E0880F991F2D813E81820FB5
:100DC000931FFC01208131818A81882F90E0820F5E
:100DD000931F0196FC0180810E945206482F842FA8
:100DE00090E0880F991F2B813C81820F931F242F45
:100DF00030E0220F331F4B815C81240F351FF90136
:100E000020813181A801242B352BFC0131832083E3
:100E10008A818F5F8A838981882F90E0880F991F4C
:100E20002D813E81820F931FFC0180819181FC0105
:100E300090818A81891708F497CF89818F5F898390
:100E40008981823008F48ECF000027960FB6F8947F
:100E5000DEBF0FBECDBFDF91CF911F910F910895DF
:100E60000F931F93CF93DF93CDB7DEB728970FB6BD
:100E7000F894DEBF0FBECDBF9E838D836F834887FE
:100E80008F81813009F043C08FE189833CC0898123
:100E9000882F90E003972EE030E0B9010E94FC27F4
:100EA000892B71F589810E943F06882F90E029E007
:100EB00030E0281B390B81E090E08C0102C0000F6C
:100EC000111F2A95E2F789810E945206482F842F2C
:100ED00090E0880F991F2D813E81820F931F242F50
:100EE00030E0220F331F4D815E81240F351FF90141
:100EF00020813181A801242B352BFC0131832083F3
:100F000089818F5F89838981863608F280C08F81CD
:100F1000823009F07CC08FE18A8375C08A81882F76
:100F200090E003972EE030E0B9010E94FC27892B66
:100F300071F58A810E943F06882F90E029E030E019
:100F4000281B390B81E090E08C0102C0000F111FBB
:100F50002A95E2F78A810E945206482F842F90E05A
:100F6000880F991F2D813E81820F931F242F30E01F
:100F7000220F331F4D815E81240F351FF90120811F
:100F80003181A801242B352BFC01318320838A81F8
:100F9000882F90E005972EE030E0B9010E94FC27F1
:100FA000892B71F58A810E943F06882F90E029E005
:100FB00030E0281B390B81E090E08C0102C0000F6B
:100FC000111F2A95E2F78A810E945206482F842F2A
:100FD00090E0880F991F2D813E81820F931F242F4F
:100FE00030E0220F331F4D815E81240F351FF90140
:100FF00020813181A801242B352BFC0131832083F2
:101000008A818F5F8A838A81883608F487CF8885B2
:10101000813009F043C085E28B833CC08B81882FEF
:1010200090E009972EE030E0B9010E94FC27892B5F
:1010300071F58B810E943F06882F90E029E030E017
:10104000281B390B81E090E08C0102C0000F111FBA
:101050002A95E2F78B810E945206482F842F90E058
:10106000880F991F2D813E81820F931F242F30E01E
:10107000220F331F4D815E81240F351FF90120811E
:101080003181A801242B352BFC01318320838B81F6
:101090008F5F8B838B818C3608F280C0888582308D
:1010A00009F07CC085E28C8375C08C81882F90E02C
:1010B00009972EE030E0B9010E94FC27892B71F5D9
:1010C0008C810E943F06882F90E029E030E0281BA9
:1010D000390B81E090E08C0102C0000F111F2A95AE
:1010E000E2F78C810E945206482F842F90E0880FEF
:1010F000991F2D813E81820F931F242F30E0220FF4
:10110000331F4D815E81240F351FF901208131810C
:10111000A801242B352BFC01318320838C81882F5F
:1011200090E00B972EE030E0B9010E94FC27892B5C
:1011300071F58C810E943F06882F90E029E030E015
:10114000281B390B81E090E08C0102C0000F111FB9
:101150002A95E2F78C810E945206482F842F90E056
:10116000880F991F2D813E81820F931F242F30E01D
:10117000220F331F4D815E81240F351FF90120811D
:101180003181A801242B352BFC01318320838C81F4
:101190008F5F8C838C818E3608F487CF0000289671
:1011A0000FB6F894DEBF0FBECDBFDF91CF911F9178
:1011B0000F910895CF93DF93CDB7DEB786E290E02D
:1011C000FC018081282F207486E290E0FC01808160
:1011D0008170282B89E290E0FC0180818870822B4D
:1011E000DF91CF910895CF93DF9300D000D0CDB79A
:1011F000DEB79C838B830E9437229A83898362E3C4
:1012000070E0CE0101960E94C1200E94DA08882F6A
:1012100090E080749927892B21F462E080E00E949D
:101220008D010E94DA08882F90E081709927892B20
:1012300021F461E080E00E948D010E94DA08882F8D
:1012400090E088709927892BD1F60E948702D7CF2A
:10125000CF93DF93CDB7DEB70000DF91CF91089534
:10126000CF93DF93CDB7DEB78BE290E02BE230E097
:10127000F90120812460FC0120830000DF91CF91DF
:101280000895CF93DF93CDB7DEB78BE290E02BE2EA
:1012900030E0F90120812062FC0120838BE290E0A4
:1012A0002BE230E0F90120812F7DFC0120838BE2CD
:1012B00090E02BE230E0F90120812061FC012083E5
:1012C0008BE290E02BE230E0F90120812F7EFC01DF
:1012D00020838BE290E02BE230E0F90120812B7F2C
:1012E000FC0120830000DF91CF910895CF93DF931D
:1012F00000D0CDB7DEB79A83898382E290E029815E
:101300002095FC01208385E290E025E230E0F901A0
:1013100020812360FC01208385E290E025E230E01B
:10132000F901408129813A81232F332723702095A9
:101330002423FC01208300000F900F90DF91CF91B8
:101340000895CF93DF93CDB7DEB78091A8018823AE
:1013500011F40E9430098091A801882F90E0880F35
:10136000991F8D5F9E4FFC01808191810E947609BB
:101370000E9441098091A8018F5F8093A80180910C
:10138000A8018E3010F01092A8010000DF91CF91DB
:101390000895CF93DF9300D000D0CDB7DEB79A8306
:1013A00089837C836B8300000F900F900F900F90C8
:1013B000DF91CF910895CF93DF93CDB7DEB70000D3
:1013C000DF91CF910895EF92FF920F93CF93DF9328
:1013D00000D01F92CDB7DEB7F8940E94B00F8BE219
:1013E00090E02BE230E0F90120812F7BFC0120838B
:1013F000E12CF12C03E020E030E04AEF50E065E71B
:1014000071E08CED9CE00E94E41E8983E12CF12CBC
:1014100004E020E030E047E850E060E871E083EF6E
:1014200098E00E94E41E8A83E12CF12C02E023E084
:1014300031E047E850E069E871E081EE92E00E9417
:10144000E41E8B8381EA99E00E94350F78940E9414
:101450005E21FFCFCF93DF93CDB7DEB727970FB6CF
:10146000F894DEBF0FBECDBF9E838D836F8319823C
:101470001A8226C08A81882F90E02D813E81820FBA
:10148000931FFC0180819981892789831B8212C067
:101490008981881F8827881F8C838981880F898389
:1014A0008C81882321F0998187E0892789838B812A
:1014B0008F5F8B838B81883058F38A818F5F8A831B
:1014C0009A818F819817B0F2898127960FB6F89488
:1014D000DEBF0FBECDBFDF91CF910895CF93DF93D5
:1014E000CDB7DEB728970FB6F894DEBF0FBECDBFDD
:1014F0009D838C836E8358874F838E81843010F454
:1015000080E041C08C819D81FC0180810E94CF0BD5
:10151000982F81E08927882311F080E034C08C81E6
:101520009D816E810E94F70B89838C819D816981E9
:101530000E94DE0B982F81E08927882311F080E03C
:1015400022C08C819D81FC0181818A8383E08B8311
:1015500099818B81F92FF81B8F2F6FEF680F8B818B
:10156000882F90E02C813D81A901480F591F8C8163
:101570009D81262F6E810E940D01282F8F819885D5
:10158000FC0120838A8128960FB6F894DEBF0FBE37
:10159000CDBFDF91CF910895CF93DF93CDB7DEB765
:1015A0002C970FB6F894DEBF0FBECDBF98878F8300
:1015B00069875B874A872C878F8198859B838A837D
:1015C0008985882F90E00E94EC179D838C838C8105
:1015D0009D81892B11F480E07FC01E828C85282F8D
:1015E000220F4C815D818A859B856C850E945D0000
:1015F0008E838E81882309F46AC08985282F30E084
:101600008E81882F90E004962817390708F45FC070
:101610008F8198859C012F5F3F4F38872F832FEF55
:10162000FC0120838F8198859C012F5F3F4F388775
:101630002F8321E0FC0120838F8198859C012F5FFF
:101640003F4F38872F832E812C5FFC012083198226
:1016500015C08F8198859C012F5F3F4F38872F835E
:101660002981222F30E04C815D81240F351FF90143
:101670002081FC01208389818F5F898399818E81FC
:10168000981738F38C819D810E94E1182F8138854D
:101690008A819B81A901481B590BCA01282F8A8185
:1016A0009B81622F0E942A0A282F8F819885FC0136
:1016B00020838F819885019698878F832F81388525
:1016C0008A819B81A901481B590BCA0105C08C81E5
:1016D0009D810E94E11880E02C960FB6F894DEBF41
:1016E0000FBECDBFDF91CF910895CF93DF9300D090
:1016F00000D01F92CDB7DEB79C838B836D838B8127
:101700009C819A8389838D81843008F43FC08B81CA
:101710009C819C012F5F3F4F3C832B832FEFFC016B
:1017200020838B819C819C012F5F3F4F3C832B83C7
:1017300022E0FC0120838B819C819C012F5F3F4F25
:101740003C832B8324E0FC0120832B813C81898115
:101750009A81A901481B590BCA01282F89819A81B6
:10176000622F0E942A0A282F8B819C81FC012083F2
:101770008B819C8101969C838B832B813C81898109
:101780009A81A901481B590BCA0101C080E00F9042
:101790000F900F900F900F90DF91CF910895CF93FE
:1017A000DF931F92CDB7DEB7898381E099819F3F98
:1017B00009F080E00F90DF91CF910895CF93DF93F0
:1017C00000D01F92CDB7DEB79A8389836B8389815E
:1017D0009A816B810E942A0A982F81E0992309F04F
:1017E00080E00F900F900F90DF91CF910895CF93ED
:1017F000DF9300D01F92CDB7DEB79A8389836B83C6
:101800008B81833010F480E016C089819A81FC01BD
:1018100080818F3F11F080E00EC089819A8101960E
:101820009A83898389819A8101969A8389838981A0
:101830009A81FC0180810F900F900F90DF91CF91E2
:101840000895CF93DF9300D01F92CDB7DEB79A8370
:1018500089836B838B81833010F420E011C08981F0
:101860009A8101969A83898389819A81FC0180817A
:10187000882F90E08270992721E0892B09F420E0DD
:10188000822F0F900F900F90DF91CF910895CF93FB
:10189000DF93CDB7DEB728970FB6F894DEBF0FBE43
:1018A000CDBF9B838A837D836C834E8338872F8350
:1018B0008E81843008F06FC080E075C08F8198857C
:1018C000FC018081882F90E02C813D81B901680F57
:1018D000791F8A819B8120E040E050E00E94081C33
:1018E000882311F480E05FC08F819885FC0180819E
:1018F000882361F48C819D81FC0180810E94CF0B43
:10190000982F81E08927882309F045C08F81988529
:10191000FC01808121E0280F8F819885FC012083C4
:101920008F819885FC0180818330A8F18C819D8115
:1019300063E00E94F70B89839E818981981710F5D7
:1019400080E031C08F819885FC018081882F90E0F4
:101950002C813D81B901680F791F8A819B8120E02C
:1019600040E050E00E94081C882311F480E01BC076
:101970008F819885FC01808121E0280F8F819885D7
:10198000FC0120838F819885FC01908189819817C3
:10199000C8F281E008C08F819885FC0190818E811A
:1019A000891708F08BCF28960FB6F894DEBF0FBECC
:1019B000CDBFDF91CF910895CF93DF93CDB7DEB741
:1019C000C157D1090FB6F894DEBF0FBECDBF9E013F
:1019D00020593F4FF9019183808340E061E084E624
:1019E0000E941F1A9093AC018093AB0181E00E948A
:1019F000D81A9093AE018093AD018EE140E061E092
:101A00000E941F1A9093AA018093A9018091A901B5
:101A10009091AA010E94220FCE0188599F4FFC018C
:101A200010820E9437229C01CE0187599F4FFC01F2
:101A300031832083CE0187599F4F69E170E00E9476
:101A4000C1208091A9019091AA019E0128593F4F80
:101A5000BE016C5F7F4F44E60E94470C882309F467
:101A600078C0CE0185599F4FFC0110829E012559F7
:101A70003F4FCE010496A90164E60E946E0A8A8354
:101A80008A81823051F481E080931F011092AF016E
:101A9000109213021092160256C08A81813009F00A
:101AA0004FC01B82CE0184599F4F64E00E94750B8A
:101AB0008B838B818823B9F18091AD019091AE0128
:101AC00020E042E350E060E070E00E94081C8823C0
:101AD000F9F0198217C08981882F90E09E0124595E
:101AE0003F4FB901680F791F8091AB019091AC0114
:101AF00020E040E050E00E94F81A882341F08981FC
:101B00008F5F898399818B81981728F301C000002A
:101B10008091AD019091AE0120E040E050E060E0A6
:101B200070E00E94F81ACE0185599F4FFC01808118
:101B3000282F30E0CE010496B9010E94D00E03C0D8
:101B400081E080931F011C82CE0188599F4FFC01C8
:101B5000108280911F01882389F08091AB019091C0
:101B6000AC0123E132E044E66FEA71E00E94470CE9
:101B7000882309F45FCF0E94E30D5CCF0E943722D7
:101B80009C018091140290911502A901481B590BE8
:101B9000CA018436910508F44DCF809116028F5FFB
:101BA0008093160280911602863018F40E94E30D8D
:101BB00041CF81E080931F011092AF011092130278
:101BC0001092160237CFCF93DF931F92CDB7DEB7B7
:101BD00080911302882339F1198213C08981882FDB
:101BE00090E081559E4FFC0180810E949F0F8823C9
:101BF00021F489818F5F898304C081E090E00E9495
:101C00003B21809113029981981740F30E9437225B
:101C1000909315028093140264E08FEA91E00E9491
:101C2000210C80931F0100000F90DF91CF91089548
:101C3000CF93DF9300D000D01F92CDB7DEB79C8347
:101C40008B836D8319821A8217C08B819C81FC0162
:101C500080818F3F31F08B819C81FC0180818823C2
:101C600019F489818F5F89838B819C8101969C8384
:101C70008B838A818F5F8A839A818D81981728F35D
:101C800089810F900F900F900F900F90DF91CF915F
:101C90000895CF93DF93CDB7DEB727970FB6F894AB
:101CA000DEBF0FBECDBF9E838D836F838D819E81EE
:101CB0006F810E94180E982F990F8F81890F8C5F6A
:101CC00089838981853610F084E689838981882F0C
:101CD00090E00E94EC179C838B838B819C81892BE5
:101CE00011F480E054C04D815E818B819C812F81F5
:101CF00069810E94CC0A89838981882309F442C0C2
:101D00008091AB019091AC010E94FE1C982F8981BB
:101D10009817C0F18091AD019091AE0120E042E3AF
:101D200050E060E070E00E94081C8823D1F01A8225
:101D300014C08A81882F90E02B813C81B901680F03
:101D4000791F8091AB019091AC0120E040E050E020
:101D50000E94F81A8A818F5F8A839A8189819817F5
:101D600040F38091AD019091AE0120E040E050E061
:101D700060E070E00E94F81A8B819C810E94E1185B
:101D800081E005C08B819C810E94E11880E027964C
:101D90000FB6F894DEBF0FBECDBFDF91CF9108958F
:101DA000CF93DF9300D01F92CDB7DEB79A8389839C
:101DB0006B838B818130A9F489819A81FC018081B8
:101DC000863229F462E081E00E948D010AC0898197
:101DD0009A81FC018081883221F461E081E00E94D7
:101DE0008D0100000F900F900F90DF91CF9108951B
:101DF000CF93DF9300D000D0CDB7DEB79B838A832B
:101E00006C838091190290911A02892B99F01982A2
:101E10008091190290911A02BE016C5F7F4F20E001
:101E2000AE014F5F5F4F0E94A91B8981882311F08B
:101E30000E94621400000F900F900F900F90DF919E
:101E4000CF910895CF93DF9300D0CDB7DEB79A83BB
:101E5000898389819A8190931A02809319020000E4
:101E60000F900F90DF91CF910895CF93DF9300D023
:101E7000CDB7DEB79A83898389819A8190931C02BA
:101E800080931B0287E490E02AE0FC01208384E435
:101E900090E024E430E0F90120812260FC012083FD
:101EA0008EE690E02EE630E0F90120812260FC0110
:101EB000208385E490E025E430E0F901208125606D
:101EC000FC01208300000F900F90DF91CF910895C7
:101ED0001F920F9200905F000F9211242F933F9357
:101EE0004F935F936F937F938F939F93AF93BF9322
:101EF000EF93FF93CF93DF93CDB7DEB780911B02B3
:101F000090911C02892B31F080911B0290911C0250
:101F1000FC0109950000DF91CF91FF91EF91BF91F6
:101F2000AF919F918F917F916F915F914F913F9171
:101F30002F910F9000925F000F901F901895CF93F4
:101F4000DF931F92CDB7DEB78983809117029091FE
:101F5000180269810E945A160F90DF91CF9108955F
:101F60008F929F92AF92BF92CF92DF92EF920F9398
:101F7000CF93DF93CDB7DEB78DE192E00E947A1068
:101F800080E492E00E947A100F2EF8EF8F2EFEE090
:101F90009F2EF02D0F2EF0E4AF2EF2E0BF2EF02D8D
:101FA0000F2EFDE1CF2EF2E0DF2EF02DE12C00E030
:101FB00023E040E052EC61E070E080E00E9499157F
:101FC000909318028093170287E290E027E230E0B6
:101FD000F90120812C73FC0120838AE290E02AE23F
:101FE00030E0F9012081277FFC01208388E290E026
:101FF00028E230E0F9012081236CFC0120838BE290
:1020000090E02BE230E0F90120812860FC01208380
:102010008AE290E02AE230E0F90120812467FC01A5
:1020200020838BE290E02BE230E0F90120812064F4
:10203000FC01208381E290E0FC01808181E290E05C
:102040002FEFFC01208384E290E024E230E0F901EC
:1020500020812360FC01208384E290E024E230E0D0
:10206000F90120812C63FC0120830000DF91CF91D6
:102070000F91EF90DF90CF90BF90AF909F908F9097
:102080000895CF93DF931F92CDB7DEB7898385E2A2
:1020900090E025E230E0F9012081237CFC012083DF
:1020A00085E290E025E230E0F9012081422F29818C
:1020B000222F30E0220F331F220F331F242BFC016D
:1020C000208300000F90DF91CF910895CF93DF938D
:1020D0001F92CDB7DEB7898385E290E025E230E03C
:1020E000F9012081237CFC01208300000F90DF9107
:1020F000CF910895CF93DF9300D0CDB7DEB79A8309
:10210000898389819A81FC0110A289819A81FC01CD
:1021100011A289819A81FC0112A200000F900F90F8
:10212000DF91CF910895CF93DF9300D000D0CDB74A
:10213000DEB79A8389837C836B8389819A81FC01D2
:1021400082A1882381F189819A81FC0181A1882F54
:1021500090E029813A81820F931FFC0120818B81BD
:102160009C81FC01208389819A81FC0181A1882FB7
:1021700090E001968F719078992324F40197806EF6
:102180009F6F0196282F89819A81FC0121A3898163
:102190009A81FC0182A12FEF280F89819A81FC018D
:1021A00022A380E001C081E00F900F900F900F906C
:1021B000DF91CF910895CF93DF9300D01F92CDB7D9
:1021C000DEB79A8389836B8389819A81FC0182A11E
:1021D000803268F589819A81FC0180A1882F90E086
:1021E00029813A81820F931F2B81FC0120838981F1
:1021F0009A81FC0180A1882F90E001968F719078E0
:10220000992324F40197806E9F6F0196282F89816E
:102210009A81FC0120A389819A81FC0182A121E09D
:10222000280F89819A81FC0122A380E001C082E00D
:102230000F900F900F90DF91CF910895CF93DF9380
:1022400000D0CDB7DEB79A83898389819A819C01BA
:102250002D5F3F4F89819A81FC01328321838981DF
:102260009A812FEF3FEFFC013483238389819A8188
:102270009C012D5F3F4F89819A81FC013683258324
:1022800089819A819C012D5F3F4F89819A81FC0150
:102290003087278389819A81FC01108200000F908A
:1022A0000F90DF91CF910895CF93DF9300D0CDB7FA
:1022B000DEB79A83898389819A81FC011186108611
:1022C00000000F900F90DF91CF910895CF93DF938F
:1022D00000D000D000D0CDB7DEB79C838B837E8347
:1022E0006D838B819C81FC01818192819A8389839A
:1022F0008D819E8129813A81FC01338322838981EA
:102300009A81FC01248135818D819E81FC01358378
:10231000248389819A81FC01848195812D813E816C
:10232000FC013383228389819A812D813E81FC01C6
:10233000358324838D819E812B813C81FC013187F3
:1023400020878B819C81FC01808121E0280F8B817B
:102350009C81FC012083000026960FB6F894DEBF16
:102360000FBECDBFDF91CF910895CF93DF93CDB74F
:10237000DEB728970FB6F894DEBF0FBECDBF9E83A1
:102380008D8378876F838F819885FC01808191810F
:102390009C838B838B819C81019641F48D819E81EE
:1023A000FC01878190859A8389831AC08D819E81E3
:1023B00003969A83898307C089819A81FC0182816F
:1023C00093819A83898389819A81FC018281938197
:1023D000FC01208131818B819C818217930760F7FA
:1023E00089819A81FC01228133818F819885FC014A
:1023F000338322838F819885FC01828193812F8191
:102400003885FC01358324838F81988529813A8121
:10241000FC013583248389819A812F813885FC01D1
:10242000338322838F8198852D813E81FC01318702
:1024300020878D819E81FC01808121E0280F8D8184
:102440009E81FC012083000028960FB6F894DEBF21
:102450000FBECDBFDF91CF910895CF93DF9300D012
:1024600000D0CDB7DEB79C838B838B819C81FC0130
:10247000808591859A8389838B819C81FC018281EF
:1024800093812B813C81F90124813581FC013583C5
:1024900024838B819C81FC01848195812B813C81EB
:1024A000F90122813381FC013383228389819A815E
:1024B000FC01218132818B819C812817390751F4DD
:1024C0008B819C81FC012481358189819A81FC0169
:1024D000328321838B819C81FC0111861086898146
:1024E0009A81FC0180812FEF280F89819A81FC015C
:1024F000208389819A81FC0180810F900F900F9039
:102500000F90DF91CF910895CF93DF93CDB7DEB7D2
:1025100028970FB6F894DEBF0FBECDBF9C838B8388
:102520007E836D8358874F838B819C8121E1FC01E1
:1025300020838B819C8101979C838B838B819C81E1
:1025400022E2FC0120838B819C8101979C838B83F9
:102550008B819C8123E3FC0120838B819C810197EB
:102560009C838B838D819E819A83898329818B8132
:102570009C81FC0120838B819C8101979C838B83B0
:1025800089819A81892F99279A83898329818B81CF
:102590009C81FC0120838B819C8101979C838B8390
:1025A0008B819C81FC0110828B819C8101979C8393
:1025B0008B838B819C8120E8FC0120838B819C8113
:1025C00001979C838B838B819C81FC0110828B8182
:1025D0009C8101979C838B838B819C8122E0FC01F1
:1025E00020838B819C8101979C838B838B819C8131
:1025F00023E0FC0120838B819C8101979C838B834A
:102600008B819C8124E0FC0120838B819C8101973C
:102610009C838B838B819C8125E0FC0120838B81B3
:102620009C8101979C838B838B819C8126E0FC019C
:1026300020838B819C8101979C838B838B819C81E0
:1026400027E0FC0120838B819C8101979C838B83F5
:102650008B819C8128E0FC0120838B819C810197E8
:102660009C838B838B819C8129E0FC0120838B815F
:102670009C8101979C838B838B819C8120E1FC0151
:1026800020838B819C8101979C838B838B819C8190
:1026900021E1FC0120838B819C8101979C838B83AA
:1026A0008B819C8122E1FC0120838B819C8101979D
:1026B0009C838B838B819C8123E1FC0120838B8114
:1026C0009C8101979C838B838B819C8124E1FC01FD
:1026D00020838B819C8101979C838B838B819C8140
:1026E00025E1FC0120838B819C8101979C838B8356
:1026F0008B819C8126E1FC0120838B819C81019749
:102700009C838B838B819C8127E1FC0120838B81BF
:102710009C8101979C838B838B819C8128E1FC01A8
:1027200020838B819C8101979C838B838B819C81EF
:1027300029E1FC0120838B819C8101979C838B8301
:102740008B819C8120E2FC0120838B819C810197FD
:102750009C838B838B819C8121E2FC0120838B8174
:102760009C8101979C838B838B819C8122E2FC015D
:1027700020838B819C8101979C838B838B819C819F
:1027800023E2FC0120838B819C8101979C838B83B6
:102790008F8198859A83898329818B819C81FC0113
:1027A00020838B819C8101979C838B8389819A8173
:1027B000892F99279A83898329818B819C81FC01A8
:1027C00020838B819C8101979C838B838B819C814F
:1027D00026E2FC0120838B819C8101979C838B8363
:1027E0008B819C8127E2FC0120838B819C81019756
:1027F0009C838B838B819C8128E2FC0120838B81CD
:102800009C8101979C838B838B819C8129E2FC01B5
:1028100020838B819C8101979C838B838B819C81FE
:1028200020E3FC0120838B819C8101979C838B8317
:102830008B819C8121E3FC0120838B819C8101970A
:102840009C838B838B819C8128960FB6F894DEBF86
:102850000FBECDBFDF91CF910895CF93DF93CDB75A
:10286000DEB70E941A15A091E807B091E907CD9153
:10287000CDBFDD91DEBFFF91EF91DF91CF91BF9191
:10288000AF919F918F917F916F915F914F913F9108
:102890002F911F910F91FF90EF90DF90CF90BF90FD
:1028A000AF909F908F907F906F905F904F903F90F0
:1028B0002F901F900F900FBE0F90089581E0DF9131
:1028C000CF9108950F920FB6F8940F921F92112492
:1028D0002F923F924F925F926F927F928F929F9230
:1028E000AF92BF92CF92DF92EF92FF920F931F931E
:1028F0002F933F934F935F936F937F938F939F9308
:10290000AF93BF93CF93DF93EF93FF93A091E8072B
:10291000B091E9070DB60D920EB60D920E946B2391
:10292000A091E807B091E907CD91CDBFDD91DEBF61
:10293000FF91EF91DF91CF91BF91AF919F918F91D7
:102940007F916F915F914F913F912F911F910F91C7
:10295000FF90EF90DF90CF90BF90AF909F908F90BF
:102960007F906F905F904F903F902F901F900F90AF
:102970000FBE0F90089500000F920FB6F8940F92BB
:102980001F9211242F923F924F925F926F927F92EB
:102990008F929F92AF92BF92CF92DF92EF92FF926F
:1029A0000F931F932F933F934F935F936F937F9357
:1029B0008F939F93AF93BF93CF93DF93EF93FF9347
:1029C000A091E807B091E9070DB60D920EB60D92F1
:1029D0000E944E22882311F00E946B23A091E807E9
:1029E000B091E907CD91CDBFDD91DEBFFF91EF91B1
:1029F000DF91CF91BF91AF919F918F917F916F9117
:102A00005F914F913F912F911F910F91FF90EF9008
:102A1000DF90CF90BF90AF909F908F907F906F90FE
:102A20005F904F903F902F901F900F900FBE0F9090
:102A300008950000CF93DF9300D000D000D0CDB731
:102A4000DEB789E999E3A0E0B0E089839A83AB839C
:102A5000BC8389819A81AB81BC81689415F8B69555
:102A6000A795979587951694D1F789839A83AB8319
:102A7000BC8389819A81AB81BC810197A109B1098D
:102A800089839A83AB83BC8389818D8389819A8171
:102A9000AB81BC81892F9A2FAB2FBB2789839A8367
:102AA000AB83BC8389818E8389E890E02E81FC0111
:102AB000208388E890E02D81FC0120838BE08D83CA
:102AC00081E890E02D81FC0120838FE690E0FC01FD
:102AD00080818D838D8182608D838FE690E02D8152
:102AE000FC012083000026960FB6F894DEBF0FBECF
:102AF000CDBFDF91CF9108950E94BC1418950000BE
:102B0000CF93DF9300D0CDB7DEB79A8389838981D5
:102B10009A81059729813A8125503109F90120814F
:102B20002062FC01208300000F900F90DF91CF9175
:102B300008958F929F92AF92BF92CF92DF92EF92C1
:102B40000F931F93CF93DF93CDB7DEB761970FB687
:102B5000F894DEBF0FBECDBF8C834D835E836F8341
:102B6000788729870A87EB86DD86CC86BF86AE8686
:102B7000998A888A88E090E00E94EC179A8389837A
:102B80008C81882F90E0880F991F8D599D4F298146
:102B90003A81FC01318320838C81882F90E0880F5B
:102BA000991F805E9E4FFC012081318189819A812D
:102BB000FC013183208389819A812E853F85FC0128
:102BC0003383228389819A812C853D85FC0135835D
:102BD000248389819A8128893989FC013783268356
:102BE0008FE590E0FC0180818B83F89489819A8144
:102BF000FC0180819181069729813A81F901208128
:102C0000318126503109F90120812260FC012083A5
:102C100089819A81FC01808191818C010250110986
:102C20008D819E81AF81B885880F991FAA1FBB1F18
:102C3000880F991FAA1FBB1F880F991FAA1FBB1FB0
:102C40009C01AD0180E090E0A1EEB0E0BC01CD01BF
:102C50000E941028DA01C9018150F801808389811E
:102C60009A81FC0180819181059728E9FC012083EC
:102C700089819A81FC0180819181049726E0FC0181
:102C800020838FE590E02B81FC01208389819A814C
:102C900061960FB6F894DEBF0FBECDBFDF91CF9126
:102CA0001F910F91EF90DF90CF90BF90AF909F90CA
:102CB0008F900895CF93DF9300D01F92CDB7DEB7EA
:102CC0009A8389836B8389819A81FC0182819381B4
:102CD000892B99F089819A81FC01828193816B8192
:102CE0000E94DB10882349F489819A81FC0180814C
:102CF00091810E94801580E001C082E00F900F90CA
:102D00000F90DF91CF9108951F920F9200905F0076
:102D10000F9211242F933F934F935F936F937F9361
:102D20008F939F93AF93BF93EF93FF93CF93DF93D3
:102D30001F92CDB7DEB78091630290916402892B18
:102D400031F186EC90E0FC018081898380916302FF
:102D500090916402FC018481958169810E94DB105D
:102D60008091630290916402FC0186819781892B96
:102D700071F08091630290916402FC012681378199
:102D800080916302909164026981F90109950000C4
:102D90000F90DF91CF91FF91EF91BF91AF919F91F4
:102DA0008F917F916F915F914F913F912F910F90F4
:102DB00000925F000F901F9018951F920F92009045
:102DC0005F000F9211242F933F934F935F936F9364
:102DD0007F938F939F93AF93BF93EF93FF93CF9383
:102DE000DF931F92CDB7DEB78091630290916402AA
:102DF000892BF9F08091630290916402FC01828139
:102E000093819E012F5F3F4FB9010E949310882349
:102E100031F486EC90E02981FC01208313C081EC21
:102E200090E021EC30E0F90120812F7DFC0120832E
:102E300009C081EC90E021EC30E0F90120812F7D88
:102E4000FC01208300000F90DF91CF91FF91EF9163
:102E5000BF91AF919F918F917F916F915F914F91B2
:102E60003F912F910F9000925F000F901F90189547
:102E70001F920F9200905F000F9211242F933F93A7
:102E80004F935F936F937F938F939F93AF93BF9372
:102E9000EF93FF93CF93DF931F92CDB7DEB780916F
:102EA000650290916602892B31F18EEC90E0FC0175
:102EB000808189838091650290916602FC01848102
:102EC000958169810E94DB10809165029091660274
:102ED000FC0186819781892B71F080916502909128
:102EE0006602FC012681378180916502909166021D
:102EF0006981F901099500000F90DF91CF91FF9151
:102F0000EF91BF91AF919F918F917F916F915F9161
:102F10004F913F912F910F9000925F000F901F9063
:102F200018951F920F9200905F000F9211242F931B
:102F30003F934F935F936F937F938F939F93AF9341
:102F4000BF93EF93FF93CF93DF931F92CDB7DEB77D
:102F50008091650290916602892BF9F0809165025B
:102F600090916602FC01828193819E012F5F3F4F09
:102F7000B9010E949310882331F48EEC90E02981EE
:102F8000FC01208313C089EC90E029EC30E0F901CA
:102F900020812F7DFC01208309C089EC90E029EC81
:102FA00030E0F90120812F7DFC01208300000F908B
:102FB000DF91CF91FF91EF91BF91AF919F918F9151
:102FC0007F916F915F914F913F912F910F90009260
:102FD0005F000F901F901895CF93DF93CDB7DEB7AA
:102FE0002E970FB6F894DEBF0FBECDBF9E878D879C
:102FF0001E821D820E9493218091E707882329F475
:103000000E94531981E08093E7078D859E85892B67
:1030100041F084E090E02D853E85820F931F9E87CE
:103020008D878D859E85892B09F4B8C08D859E85F9
:103030008737954008F0B2C08FED97E09C838B8373
:103040008091DF079091E0079A8389830BC0898183
:103050009A819C838B8389819A81FC0180819181F3
:103060009A83898389819A81FC01228133818D85AC
:103070009E852817390738F489819A81FC0180815F
:103080009181892B21F789819A81835E974009F488
:1030900085C08B819C81FC012081318184E090E09E
:1030A000820F931F9E838D8389819A81FC012081E9
:1030B00031818B819C81FC013183208389819A81BC
:1030C000FC01228133818D859E85281B390B84E08C
:1030D00090E0880F991F8217930708F04EC029814E
:1030E0003A818D859E85820F931F9A878987898172
:1030F0009A81FC01228133818D859E85281B390BA5
:1031000089859A85FC013383228389819A812D8563
:103110003E85FC013383228389859A85FC01828167
:1031200093819C878B878FED97E098878F8307C06B
:103130008F819885FC018081918198878F838F8111
:103140009885FC0180819181FC01228133818B85EE
:103150009C852817390760F38F819885FC012081B1
:10316000318189859A85FC01318320838F819885FF
:1031700029853A85FC0131832083209124013091F7
:10318000250189819A81FC0182819381A901481BD3
:10319000590BCA0190932501809324010E94A0211C
:1031A0008D819E81892B11F40E94DB098D819E8186
:1031B0002E960FB6F894DEBF0FBECDBFDF91CF9134
:1031C0000895CF93DF93CDB7DEB72A970FB6F89463
:1031D000DEBF0FBECDBF9A87898789859A859C837C
:1031E0008B8389859A85892B09F453C084E090E00C
:1031F0009195819591092B813C81820F931F9C832E
:103200008B838B819C819E838D830E9493218D81F2
:103210009E81FC018281938198878F838FED97E057
:103220009A83898307C089819A81FC018081918179
:103230009A83898389819A81FC0180819181FC0133
:10324000228133818F8198852817390760F389811E
:103250009A81FC01208131818D819E81FC01318325
:10326000208389819A812D813E81FC0131832083D5
:103270008D819E81FC012281338180912401909176
:103280002501820F931F90932501809324010E94B2
:10329000A02100002A960FB6F894DEBF0FBECDBF66
:1032A000DF91CF910895CF93DF9300D000D0CDB7B9
:1032B000DEB788E692E09A83898389819A81909328
:1032C000E0078093DF071092E2071092E10787E79B
:1032D00095E09093E6078093E5071092E40710923B
:1032E000E30789819A819C838B838B819C8127E76B
:1032F00035E0FC01338322838B819C8123EE37E010
:10330000FC013183208300000F900F900F900F90ED
:10331000DF91CF910895CF93DF9300D000D01F921B
:10332000CDB7DEB79C838B836D838B819C819A8321
:1033300089830FB6F8940F9289819A81FC0180816C
:10334000918129813A81F901238D422F50E0298111
:103350003A81F901248D222F30E0429FB001439F32
:10336000700D529F700D11249B01280F391F898108
:103370009A81FC013383228389819A81FC01128E18
:1033800089819A81FC012081318189819A81FC01A6
:103390003583248389819A81FC01808191812981EF
:1033A0003A81F901238D222F30E0A90141505109C2
:1033B00029813A81F901248D222F30E0429FB0010A
:1033C000439F700D529F700D11249B01280F391FD0
:1033D00089819A81FC013783268389819A812FEF25
:1033E000FC01258F89819A812FEFFC01268F8D8129
:1033F000882381F489819A81FC0180858823A1F04A
:1034000089819A8108960E943324882369F00E945A
:1034100062140AC089819A8108960E941E118981CE
:103420009A8141960E941E110F900FBE81E00F906D
:103430000F900F900F900F90DF91CF9108950F9301
:103440001F93CF93DF93CDB7DEB729970FB6F894CC
:10345000DEBF0FBECDBF8F836887498788858823ED
:1034600019F41A8219820FC08F81482F50E0888585
:10347000282F30E0429FC001439F900D529F900D36
:1034800011249A83898389819A8181960E94EC17FD
:103490009C838B838B819C81892B81F08B819C8188
:1034A00081969E838D832B813C818D819E818901B4
:1034B0002985AC0168858F810E946B1A8B819C8164
:1034C00029960FB6F894DEBF0FBECDBFDF91CF9126
:1034D0001F910F9108950F931F93CF93DF93CDB753
:1034E000DEB727970FB6F894DEBF0FBECDBF898336
:1034F0006A835C834B832D831F830E838A81882399
:1035000041F48E819F812E813F81FC013183208394
:1035100007C08E819F812B813C81FC0131832083F8
:103520008E819F812981FC01238F8E819F812A8139
:10353000FC01248F8E819F8161E00E948B198E8116
:103540009F812D81FC0120A3000027960FB6F894DF
:10355000DEBF0FBECDBFDF91CF911F910F910895B8
:10356000CF93DF9300D0CDB7DEB79A83898389816B
:103570009A81892BB9F089819A81FC011382128288
:1035800089819A81FC011182108289819A81FC01D2
:10359000168289819A8120E040E050E060E070E08E
:1035A0000E94F81A00000F900F90DF91CF910895BC
:1035B000CF93DF9300D000D01F92CDB7DEB78D83BD
:1035C00081E089831A824D816A8189810E941F1A54
:1035D0009C838B838B819C810E94B01A8B819C8100
:1035E0000F900F900F900F900F90DF91CF91089553
:1035F000CF93DF93CDB7DEB72E970FB6F894DEBF2B
:103600000FBECDBF998788877B876A875D874C8788
:103610002E871982888599859B838A830FB6F894B3
:103620000F928A819B81FC01228D8A819B81FC0102
:10363000838D281718F08E85823011F52A853B85F9
:103640008A819B814E85B9010E94251D8C838A81C8
:103650009B81FC018189882351F08A819B8141965D
:103660000E943324882341F00E94621405C08C819B
:10367000882311F00E9462140F900FBE81E060C099
:103680008C859D85892B21F40F900FBE80E058C05A
:103690008981882331F4CE0105960E94A02481E01F
:1036A00089830F900FBE0E9493210FB6F8940F925A
:1036B0008A819B81FC01858D8F3F21F48A819B81CA
:1036C000FC01158E8A819B81FC01868D8F3F21F440
:1036D0008A819B81FC01168E0F900FBE9E01245F94
:1036E0003F4FCE010596B9010E94BC24882309F5FD
:1036F0008A819B810E94C21E8823A1F02C853D8572
:103700008A819B810896B9010E9410248A819B813D
:103710000E94461E0E94A021882309F07FCF0E94AC
:1037200062147CCF8A819B810E94461E0E94A02148
:1037300075CF8A819B810E94461E0E94A02180E055
:103740002E960FB6F894DEBF0FBECDBFDF91CF919E
:103750000895CF93DF93CDB7DEB72C970FB6F894CB
:10376000DEBF0FBECDBF9F838E83798768875B875F
:103770004A872C878E819F819B838A831C828A81C2
:103780009B81FC01228D8A819B81FC01838D2817FE
:1037900018F08C85823089F58A819B81FC01868DA9
:1037A0008D83288539858A819B814C85B9010E944A
:1037B000251D8D818F3FB9F48A819B81FC01818910
:1037C0008823C1F08A819B8141960E9433248823FB
:1037D00089F08A859B85892B69F08A859B8521E004
:1037E000FC01208307C08D818F5F282F8A819B81F8
:1037F000FC01268F81E0898301C0198289812C9682
:103800000FB6F894DEBF0FBECDBFDF91CF91089504
:10381000CF93DF93CDB7DEB760970FB6F894DEBFD6
:103820000FBECDBF9B878A877D876C875F874E875A
:10383000288B19828A859B859B838A830FB6F8948F
:103840000F928A819B81FC01828D8C838C818823DD
:1038500009F451C08A819B81FC01868197819E83F6
:103860008D832C853D858A819B81B9010E94F51D40
:103870008889882331F58C812FEF280F8A819B81DD
:10388000FC01228F8A819B81FC0180819181892B9F
:1038900041F40E947A279C018A819B81FC01338339
:1038A00022838A819B81FC018085882301F18A81A2
:1038B0009B8108960E9433248823C9F00E946214D9
:1038C00016C08A819B812D813E81FC01378326832E
:1038D0008A819B81FC018189882349F08A819B81AF
:1038E00041960E943324882311F00E9462140F90A5
:1038F0000FBE81E07AC08E859F85892B21F40F90C1
:103900000FBE80E072C08981882331F4CE01079612
:103910000E94A02481E089830F900FBE0E94932112
:103920000FB6F8940F928A819B81FC01858D8F3FA1
:1039300021F48A819B81FC01158E8A819B81FC0187
:10394000868D8F3F21F48A819B81FC01168E0F901A
:103950000FBE9E01225F3F4FCE010796B9010E9424
:10396000BC248823A1F58A819B810E94A41E882300
:1039700039F18A819B81FC0180819181892B61F4DD
:103980000FB6F8940F928A819B81FC01828193810A
:103990000E9465260F900FBE2E853F858A819B81F0
:1039A0004196B9010E9410248A819B810E94461E83
:1039B0000E94A021882309F041CF0E9462143ECFCB
:1039C0008A819B810E94461E0E94A02137CF8A8156
:1039D0009B810E94461E0E94A0218A819B810E9499
:1039E000A41E882309F42ACF80E060960FB6F894CD
:1039F000DEBF0FBECDBFDF91CF910895CF93DF9390
:103A000000D000D01F92CDB7DEB79D838C838C8110
:103A10009D819A8389830FB6F8940F9289819A8148
:103A2000FC01238D89819A81FC01828DF22FF81B84
:103A30008F2F8B830F900FBE8B810F900F900F9065
:103A40000F900F90DF91CF910895CF93DF93CDB773
:103A5000DEB727970FB6F894DEBF0FBECDBF9C83AD
:103A60008B837E836D834F8319828B819C81FC01C4
:103A7000828D8A838B819C81FC01848D8823B1F4A3
:103A80008B819C81FC0180819181892B09F09CC0F4
:103A90008B819C81FC01828193810E94FD26898318
:103AA0008B819C81FC01138212828EC08F818823BE
:103AB000D9F58B819C81FC01848D482F50E08B814E
:103AC0009C81FC01848195812D813E81B9010E94F8
:103AD00046288B819C81FC01248135818B819C81CE
:103AE000FC01848D882F90E0280F391F8B819C81E9
:103AF000FC01358324838B819C81FC0124813581E9
:103B00008B819C81FC01828193812817390708F4FD
:103B10005BC08B819C81FC01208131818B819C81E8
:103B2000FC013583248350C08B819C81FC01848DF2
:103B3000482F50E08B819C81FC01868197812D81EB
:103B40003E81B9010E9446288B819C81FC0126811F
:103B500037818B819C81FC01848D882F90E0919529
:103B600081959109280F391F8B819C81FC01378336
:103B700026838B819C81FC01268137818B819C81EE
:103B8000FC018081918128173907A8F48B819C81E1
:103B9000FC01228133818B819C81FC01848D882FE3
:103BA00090E0919581959109280F391F8B819C8117
:103BB000FC01378326838F81823031F48A81882308
:103BC00019F08A8181508A838A8121E0280F8B81B4
:103BD0009C81FC01228F898127960FB6F894DEBF65
:103BE0000FBECDBFDF91CF910895CF93DF9300D06B
:103BF00000D0CDB7DEB79A8389837C836B838981BC
:103C00009A81FC01848D8823C9F189819A81FC0104
:103C10002681378189819A81FC01848D882F90E0EB
:103C2000280F391F89819A81FC0137832683898176
:103C30009A81FC012681378189819A81FC018281E8
:103C400093812817390750F089819A81FC012081DE
:103C5000318189819A81FC013783268389819A8108
:103C6000FC01848D482F50E089819A81FC012681D6
:103C700037818B819C81B9010E94462800000F90FA
:103C80000F900F900F90DF91CF910895CF93DF9316
:103C900000D000D0CDB7DEB79C838B830FB6F894ED
:103CA0000F928B819C81FC01868D898312C08B8150
:103CB0009C81FC018189882381F08B819C814196C4
:103CC0000E943324882311F00E9424258981815089
:103CD0008983898118165CF301C000008B819C8167
:103CE0002FEFFC01268F0F900FBE0FB6F8940F92A6
:103CF0008B819C81FC01858D8A8312C08B819C8184
:103D0000FC018085882381F08B819C8108960E942C
:103D10003324882311F00E9424258A8181508A83CC
:103D20008A8118165CF301C000008B819C812FEF03
:103D3000FC01258F0F900FBE00000F900F900F9089
:103D40000F90DF91CF910895CF93DF9300D01F9212
:103D5000CDB7DEB79B838A830FB6F8940F928A8122
:103D60009B81FC01828D882319F481E0898301C045
:103D700019820F900FBE89810F900F900F90DF91E5
:103D8000CF910895CF93DF9300D01F92CDB7DEB7C8
:103D90009B838A830FB6F8940F928A819B81FC01E2
:103DA000228D8A819B81FC01838D281719F481E083
:103DB000898301C019820F900FBE89810F900F90E7
:103DC0000F90DF91CF9108958F929F92AF92BF9203
:103DD000CF92DF92EF92FF920F931F93CF93DF93D7
:103DE000CDB7DEB760970FB6F894DEBF0FBECDBF7C
:103DF0009F838E83798768875B874A873D872C8777
:103E00000E87F88AEF868A859B850E94EC179D8332
:103E10008C838C819D81892BB9F08CE290E00E948B
:103E2000EC179A83898389819A81892B41F0898152
:103E30009A812C813D81FC01308F278B07C08C81BA
:103E40009D810E94E11802C01A82198289819A819B
:103E5000892B09F18A859B85CC01A0E0B0E009811E
:103E60001A814F8558892C853D8568857985EE8135
:103E7000FF81812C912C58016A01EE8489019C01FB
:103E8000AD01CF010E94611F89819A810E943D206E
:103E900081E08B8302C08FEF8B838B8160960FB69E
:103EA000F894DEBF0FBECDBFDF91CF911F910F9170
:103EB000FF90EF90DF90CF90BF90AF909F908F904A
:103EC00008958F929F92AF92BF92CF92DF92EF921E
:103ED0000F931F93CF93DF93CDB7DEB764970FB6E1
:103EE000F894DEBF0FBECDBF9D838C837F836E832E
:103EF000288739874A875B871D870C87EE86D88A93
:103F0000CF86BA8AA98A9C8A8B8A2885398589892D
:103F10009A89FC018789908DA90165EA70E00E9469
:103F20004F2889899A89FC012789308D8885998550
:103F30000197820F931F9B838A83198221C08981F5
:103F4000882F90E02981222F30E04E815F81240F5D
:103F5000351FF901408129893A89820F931F4996BB
:103F6000FC0140838981882F90E02E813F81820F60
:103F7000931FFC018081882339F089818F5F8983B9
:103F800089818830E0F201C0000089899A89FC01AA
:103F900010A28E85843010F083E08E8789899A89FB
:103FA0002E85FC01268B89899A892E85FC0123A305
:103FB00089899A89FC0114A289899A8902960E94AA
:103FC000541189899A890C960E94541189899A8979
:103FD00029893A89FC01318720878E85882F90E0D6
:103FE00024E030E0281B390B89899A89FC01358748
:103FF000248789899A8929893A89FC01338B228B04
:1040000089899A89FC0116A215A289899A89FC01DD
:1040100017A210A611A612A689899A89FC0113A6D7
:104020004C855D852C813D818A819B81B9010E94EF
:1040300084129C0189899A89FC01318320838F85B0
:104040009889892B39F08F85988929893A89FC01CB
:1040500031832083000064960FB6F894DEBF0FBE54
:10406000CDBFDF91CF911F910F91EF90DF90CF9057
:10407000BF90AF909F908F900895CF93DF9300D023
:10408000CDB7DEB79A8389830FB6F8940F928091EB
:1040900037088F5F809337088091E8079091E90790
:1040A000892B69F489819A819093E9078093E807C5
:1040B000809137088130C9F40E94412516C0809153
:1040C0003B08882391F48091E8079091E907FC016F
:1040D000268989819A81FC018689821730F089813D
:1040E0009A819093E9078093E80780913F088F5F5A
:1040F00080933F0820913F0889819A81FC0121A388
:1041000089819A81FC01968980913A08891730F457
:1041100089819A81FC01868980933A0889819A81F4
:10412000AC014E5F5F4F89819A81FC018689282FFF
:1041300030E0C901880F991F880F991F880F991FB8
:10414000820F931F8651984FBA010E9466110F90FB
:104150000FBE80913B08882371F08091E807909111
:10416000E907FC01268989819A81FC018689281743
:1041700010F40E94621400000F900F90DF91CF9115
:104180000895CF93DF93CDB7DEB72A970FB6F89493
:10419000DEBF0FBECDBF98878F837A87698719826C
:1041A0000E94932180913808909139089B838A83DB
:1041B0008F819885FC012081318189859A85820FC4
:1041C000931F9D838C838F819885FC012081318191
:1041D0008A819B8182179307A0F48F819885FC01C7
:1041E000208131818C819D8182179307E8F42C8195
:1041F0003D818A819B8182179307B0F481E0898396
:1042000013C08F819885FC01208131818C819D8133
:104210008217930738F02C813D818A819B81821718
:10422000930710F481E089838F8198852C813D81EB
:10423000FC01318320838981882359F02C813D81C1
:104240008A819B81A901481B590BCA0160E00E9429
:1042500094270E94A0218E838E81882311F40E94CE
:10426000621400002A960FB6F894DEBF0FBECDBFD1
:10427000DF91CF910895CF93DF9300D01F92CDB7F8
:10428000DEB79B838A8319828A819B81892B51F0B7
:104290000E9493218A819B8160E00E9494270E9462
:1042A000A02189838981882311F40E94621400006F
:1042B0000F900F900F90DF91CF910895EF92FF92A2
:1042C0000F93CF93DF931F92CDB7DEB70F2EF2E49B
:1042D000EF2EF8E0FF2EF02D00E020E030E045E585
:1042E00050E063E971E08FE295E20E94E41E898369
:1042F0008981813081F4F8948FEF9FEF909341088A
:104300008093400881E080933B0810923908109216
:1043100038080E942D1400000F90DF91CF910F916B
:10432000FF90EF900895CF93DF93CDB7DEB78091E4
:1043300044088F5F809344080000DF91CF91089577
:10434000CF93DF9300D000D0CDB7DEB71A821982A9
:104350001B820FB6F8940F9280914408815080938D
:10436000440880914408882309F077C08091370879
:10437000882309F472C049C08091290890912A08C5
:10438000FC01868197819A83898389819A810C9621
:104390000E942D1289819A8102960E942D12898194
:1043A0009A81FC01968980913A08891730F48981B5
:1043B0009A81FC01868980933A0889819A81AC01AF
:1043C0004E5F5F4F89819A81FC018689282F30E0FA
:1043D000C901880F991F880F991F880F991F820F95
:1043E000931F8651984FBA010E94661189819A8164
:1043F000FC0126898091E8079091E907FC018689F4
:10440000281718F081E080933D08809124088823C4
:1044100009F0B2CF89819A81892B11F00E9436264A
:1044200080913C088C838C81882379F00E944E22F5
:10443000882319F081E080933D088C8181508C8322
:104440008C81882399F710923C0880913D0888233D
:1044500021F081E08B830E9462140F900FBE8B814C
:104460000F900F900F900F90DF91CF910895CF9301
:10447000DF9300D0CDB7DEB70FB6F8940F928091DE
:104480003808909139089A8389830F900FBE8981EB
:104490009A810F900F90DF91CF910895CF93DF9382
:1044A000CDB7DEB729970FB6F894DEBF0FBECDBFEC
:1044B000198280914408882309F0C8C08091380887
:1044C0009091390801969B838A838A819B8190937E
:1044D0003908809338088A819B81892BD9F480918F
:1044E0002008909121089D838C83809122089091CF
:1044F000230890932108809320088C819D819093BC
:1045000023088093220880913E088F5F80933E08A5
:104510000E94362680914008909141082A813B8173
:104520002817390708F478C0809120089091210855
:10453000FC018081882339F48FEF9FEF909341082D
:104540008093400869C08091200890912108FC0167
:1045500085819681FC01868197819F838E838E81E0
:104560009F81FC0182819381998788872A813B8181
:10457000888599852817390738F488859985909317
:1045800041088093400848C08E819F8102960E9416
:104590002D128E819F81FC0184899589892B29F0B8
:1045A0008E819F810C960E942D128E819F81FC012D
:1045B000968980913A08891730F48E819F81FC0199
:1045C000868980933A088E819F81AC014E5F5F4F50
:1045D0008E819F81FC018689282F30E0C901880FD8
:1045E000991F880F991F880F991F820F931F86515B
:1045F000984FBA010E9466118E819F81FC01268925
:104600008091E8079091E907FC018689281708F452
:104610008BCF81E0898388CF8091E8079091E9076B
:10462000FC018689282F30E0C901880F991F880F67
:10463000991F880F991F820F931F8651984FFC0175
:104640008081823040F081E0898305C080913C0800
:104650008F5F80933C0880913D08882311F081E0B2
:104660008983898129960FB6F894DEBF0FBECDBF2E
:10467000DF91CF910895CF93DF9300D000D000D089
:10468000CDB7DEB79C838B837E836D838B819C81CA
:10469000892B39F48091E8079091E9079A838983FF
:1046A00004C08B819C819A8389830FB6F8940F9202
:1046B00089819A812D813E81FC0136A325A30F902B
:1046C0000FBE000026960FB6F894DEBF0FBECDBF1A
:1046D000DF91CF910895CF93DF9300D01F92CDB794
:1046E000DEB780914408882321F081E080933D0863
:1046F00090C010923D088091E8079091E907FC0175
:1047000085A196A10E9466108091E8079091E90723
:10471000FC01208131818091E8079091E907FC013B
:104720008789908D8217930770F08091E8079091A8
:10473000E9079C01275E3F4F8091E8079091E907C8
:10474000B9010E94C90980913A08898303C089810F
:10475000815089838981282F30E0C901880F991FF2
:10476000880F991F880F991F820F931F8651984FAA
:10477000FC018081882359F38981282F30E0C90109
:10478000880F991F880F991F880F991F820F931FF9
:104790008651984F9B838A838A819B81FC0181810A
:1047A0009281FC01228133818A819B81FC013283C9
:1047B00021838A819B81FC01218132818A819B81B5
:1047C00003962817390769F48A819B81FC0181814E
:1047D0009281FC01228133818A819B81FC01328399
:1047E00021838A819B81FC0181819281FC018681E8
:1047F00097819093E9078093E807898180933A082D
:104800008091E8079091E907FC0185A196A10E949B
:10481000411000000F900F900F90DF91CF910895FD
:10482000CF93DF9300D000D0CDB7DEB79A838983D2
:104830007C836B838091E8079091E9079C01245F5A
:104840003F4F89819A81B9010E94B5118B819C816A
:1048500061E00E94942700000F900F900F900F903E
:10486000DF91CF910895CF93DF9300D000D01F92B6
:10487000CDB7DEB79D838C838C819D81FC018581C2
:104880009681FC01868197819B838A838A819B81A3
:104890000C960E942D1280914408882369F58A8124
:1048A0009B8102960E942D128A819B81FC01968930
:1048B00080913A08891730F48A819B81FC018689AE
:1048C00080933A088A819B81AC014E5F5F4F8A8159
:1048D0009B81FC018689282F30E0C901880F991F30
:1048E000880F991F880F991F820F931F8651984F29
:1048F000BA010E94661108C08A819B810C96BC0196
:1049000084E298E00E9466118A819B81FC012689DD
:104910008091E8079091E907FC018689821730F4BD
:1049200081E0898381E080933D0801C019828981FB
:104930000F900F900F900F900F90DF91CF910895EF
:10494000CF93DF9300D0CDB7DEB79A8389832091D0
:104950003E0889819A81FC0120832091380830919A
:10496000390889819A81FC013283218300000F90EC
:104970000F90DF91CF910895CF93DF93CDB7DEB73E
:1049800027970FB6F894DEBF0FBECDBF9D838C83F3
:104990007F836E830FB6F8940F92809138089091C0
:1049A00039089B838A838C819D81FC019081809151
:1049B0003E08981769F08C819D81FC01218132812C
:1049C0008A819B818217930718F081E0898330C028
:1049D0008C819D81FC01818192812A813B81281BF0
:1049E000390B8E819F81FC018081918128173907C5
:1049F000E8F48E819F81FC01208131818C819D8131
:104A0000FC01418152818A819B81BA01681B790B2B
:104A1000CB01280F391F8E819F81FC0131832083B8
:104A20008C819D810E94A024198202C081E089832B
:104A30000F900FBE898127960FB6F894DEBF0FBE88
:104A4000CDBFDF91CF910895CF93DF93CDB7DEB780
:104A500081E080933D080000DF91CF910895CF93CE
:104A6000DF9300D0CDB7DEB79A8389830E947F257C
:104A70008091EA07823010F00E9462140E94280997
:104A8000F5CFCF93DF931F92CDB7DEB7198213C056
:104A90008981282F30E0C901880F991F880F991F3D
:104AA000880F991F820F931F8651984F0E941E11E5
:104AB00089818F5F89838981843050F38EE098E00B
:104AC0000E941E1187E198E00E941E1184E298E086
:104AD0000E941E118DE298E00E941E118EE098E067
:104AE000909321088093200887E198E09093230811
:104AF0008093220800000F90DF91CF910895CF930B
:104B0000DF9300D01F92CDB7DEB72FC00E94932154
:104B100090912D0881E0992309F080E089830E941B
:104B2000A0218981882309F50FB6F8940F9280910E
:104B3000320890913308FC01868197819B838A8398
:104B40008A819B8102960E942D12809137088150A4
:104B500080933708809136088150809336080F90F3
:104B60000FBE8A819B810E941E2680913608882371
:104B700069F600000F900F900F90DF91CF9108958C
:104B8000CF93DF9300D000D000D0CDB7DEB79E83A7
:104B90008D8319821A821B821C8210C08D819E8196
:104BA00001969E838D8389819A81AB81BC81019618
:104BB000A11DB11D89839A83AB83BC838D819E81A6
:104BC000FC018081853A51F389819A8126960FB63E
:104BD000F894DEBF0FBECDBFDF91CF910895CF9384
:104BE000DF93CDB7DEB727970FB6F894DEBF0FBEC1
:104BF000CDBF9F838E838E819F81892B29F48091E5
:104C0000E8079091E90702C08E819F819A8389838A
:104C100089819A81FC018789908D9C838B838B810C
:104C20009C810E94C0258D838D8127960FB6F894B4
:104C3000DEBF0FBECDBFDF91CF910895CF93DF933D
:104C400000D0CDB7DEB79A83898389819A81FC0130
:104C50008789908D0E94E11889819A810E94E118CC
:104C600000000F900F90DF91CF910895CF93DF93C5
:104C700000D0CDB7DEB78091200890912108FC01CB
:104C80008081882339F48FEF9FEF909341088093C0
:104C9000400815C08091200890912108FC01858171
:104CA0009681FC01868197819A83898389819A8183
:104CB000FC01828193819093410880934008000019
:104CC0000F900F90DF91CF910895CF93DF9300D095
:104CD00000D0CDB7DEB79C838B838B819C819A8378
:104CE00089838B819C81892B09F47FC089819A817A
:104CF000FC0126898091E8079091E907FC018689EB
:104D0000281708F072C089819A81FC0184859585F5
:104D100099238CF08091E8079091E907FC0186893E
:104D2000882F90E024E030E0281B390B89819A819C
:104D3000FC013587248789819A81FC01428553854E
:104D400089819A81FC018689282F30E0C901880F6A
:104D5000991F880F991F880F991F820F931F8651E3
:104D6000984F48175907B9F589819A8102960E9490
:104D70002D128091E8079091E907FC01268989812D
:104D80009A81FC01268B89819A81FC019689809108
:104D90003A08891730F489819A81FC0186898093C9
:104DA0003A0889819A81AC014E5F5F4F89819A816F
:104DB000FC018689282F30E0C901880F991F880FD0
:104DC000991F880F991F820F931F8651984FBA0120
:104DD0000E9466110AC08091E8079091E907FC01E2
:104DE000268989819A81FC01268B00000F900F9003
:104DF0000F900F90DF91CF910895CF93DF9300D064
:104E000000D01F92CDB7DEB79D838C838C819D81AE
:104E10009B838A8319828C819D81892B09F461C0CF
:104E20008A819B81FC0184A12FEF280F8A819B81BD
:104E3000FC0124A38A819B81FC0126898A819B81B4
:104E4000FC0183A1281709F44CC08A819B81FC01D5
:104E500084A1882309F045C08A819B8102960E9423
:104E60002D128A819B81FC0123A18A819B81FC01F7
:104E7000268B8A819B81FC018689882F90E024E023
:104E800030E0281B390B8A819B81FC013587248700
:104E90008A819B81FC01968980913A08891730F4B8
:104EA0008A819B81FC01868980933A088A819B8153
:104EB000AC014E5F5F4F8A819B81FC018689282F60
:104EC00030E0C901880F991F880F991F880F991F1B
:104ED000820F931F8651984FBA010E94661181E09C
:104EE000898389810F900F900F900F900F90DF9121
:104EF000CF910895CF93DF93CDB7DEB78091E807C8
:104F00009091E907892B49F08091E8079091E90792
:104F1000FC0124A12F5FFC0124A38091E80790915C
:104F2000E907DF91CF910895CF93DF93CDB7DEB737
:104F300027970FB6F894DEBF0FBECDBF9E838D833B
:104F40006F8380913808909139089A838983809182
:104F5000E8079091E90702960E942D1229813A8173
:104F60008D819E81820F931F9C838B838091E807A4
:104F70009091E9072B813C81FC01338322832B81B3
:104F80003C8189819A812817390778F48091E80754
:104F90009091E9079C012E5F3F4F809122089091EC
:104FA0002308B9010E94B5111DC08091E8079091B6
:104FB000E9079C012E5F3F4F8091200890912108C6
:104FC000B9010E94B51180914008909141082B8150
:104FD0003C812817390730F48B819C8190934108DC
:104FE00080934008000027960FB6F894DEBF0FBEEE
:104FF000CDBFDF91CF91089597FB072E16F4009453
:1050000007D077FD09D00E94322807FC05D03EF476
:10501000909581959F4F0895709561957F4F089564
:10502000A1E21A2EAA1BBB1BFD010DC0AA1FBB1FAC
:10503000EE1FFF1FA217B307E407F50720F0A21B1E
:10504000B30BE40BF50B661F771F881F991F1A948B
:1050500069F760957095809590959B01AC01BD01B5
:10506000CF010895AA1BBB1B51E107C0AA1FBB1F9C
:10507000A617B70710F0A61BB70B881F991F5A95E4
:10508000A9F780959095BC01CD010895FB01DC0145
:1050900002C001900D9241505040D8F70895DC01B4
:1050A00001C06D9341505040E0F70895FC0101901C
:1050B0000020E9F7809590958E0F9F1F0895F89432
:0250C000FFCF20
:1050C200150200FF0301031C023E007E00FE00FCED
:1050D20001FE007E003E001C020103FF03000001EE
:1050E200C600CE00770547616D6520697320726541
:1050F200737461727465642100506C617965722009
:10510200312073636F7265642100506C617965723E
:1051120020322073636F7265642100706C6179655F
:1051220072203120776F6E00706C61796572203267
:1051320020776F6E0073657269616C5F636F6D00DB
:105142006A6F79737469636B0067616D655F72651D
:085152006E640049444C450065
:00000001FF
